{
  "_format": "hh-sol-artifact-1",
  "contractName": "Unyte",
  "sourceName": "contracts/contributionNFT.sol",
  "abi": [
    {
      "inputs": [],
      "stateMutability": "nonpayable",
      "type": "constructor"
    },
    {
      "anonymous": false,
      "inputs": [
        {
          "indexed": true,
          "internalType": "address",
          "name": "owner",
          "type": "address"
        },
        {
          "indexed": true,
          "internalType": "address",
          "name": "approved",
          "type": "address"
        },
        {
          "indexed": true,
          "internalType": "uint256",
          "name": "tokenId",
          "type": "uint256"
        }
      ],
      "name": "Approval",
      "type": "event"
    },
    {
      "anonymous": false,
      "inputs": [
        {
          "indexed": true,
          "internalType": "address",
          "name": "owner",
          "type": "address"
        },
        {
          "indexed": true,
          "internalType": "address",
          "name": "operator",
          "type": "address"
        },
        {
          "indexed": false,
          "internalType": "bool",
          "name": "approved",
          "type": "bool"
        }
      ],
      "name": "ApprovalForAll",
      "type": "event"
    },
    {
      "anonymous": false,
      "inputs": [
        {
          "indexed": true,
          "internalType": "address",
          "name": "from",
          "type": "address"
        },
        {
          "indexed": true,
          "internalType": "address",
          "name": "to",
          "type": "address"
        },
        {
          "indexed": true,
          "internalType": "uint256",
          "name": "tokenId",
          "type": "uint256"
        }
      ],
      "name": "Transfer",
      "type": "event"
    },
    {
      "inputs": [
        {
          "internalType": "address",
          "name": "to",
          "type": "address"
        },
        {
          "internalType": "uint256",
          "name": "tokenId",
          "type": "uint256"
        }
      ],
      "name": "approve",
      "outputs": [],
      "stateMutability": "nonpayable",
      "type": "function"
    },
    {
      "inputs": [
        {
          "internalType": "address",
          "name": "owner",
          "type": "address"
        }
      ],
      "name": "balanceOf",
      "outputs": [
        {
          "internalType": "uint256",
          "name": "",
          "type": "uint256"
        }
      ],
      "stateMutability": "view",
      "type": "function"
    },
    {
      "inputs": [
        {
          "internalType": "uint256",
          "name": "tokenId",
          "type": "uint256"
        }
      ],
      "name": "getApproved",
      "outputs": [
        {
          "internalType": "address",
          "name": "",
          "type": "address"
        }
      ],
      "stateMutability": "view",
      "type": "function"
    },
    {
      "inputs": [
        {
          "internalType": "address",
          "name": "owner",
          "type": "address"
        },
        {
          "internalType": "address",
          "name": "operator",
          "type": "address"
        }
      ],
      "name": "isApprovedForAll",
      "outputs": [
        {
          "internalType": "bool",
          "name": "",
          "type": "bool"
        }
      ],
      "stateMutability": "view",
      "type": "function"
    },
    {
      "inputs": [],
      "name": "name",
      "outputs": [
        {
          "internalType": "string",
          "name": "",
          "type": "string"
        }
      ],
      "stateMutability": "view",
      "type": "function"
    },
    {
      "inputs": [
        {
          "internalType": "uint256",
          "name": "tokenId",
          "type": "uint256"
        }
      ],
      "name": "ownerOf",
      "outputs": [
        {
          "internalType": "address",
          "name": "",
          "type": "address"
        }
      ],
      "stateMutability": "view",
      "type": "function"
    },
    {
      "inputs": [
        {
          "internalType": "address",
          "name": "from",
          "type": "address"
        },
        {
          "internalType": "address",
          "name": "to",
          "type": "address"
        },
        {
          "internalType": "uint256",
          "name": "tokenId",
          "type": "uint256"
        }
      ],
      "name": "safeTransferFrom",
      "outputs": [],
      "stateMutability": "nonpayable",
      "type": "function"
    },
    {
      "inputs": [
        {
          "internalType": "address",
          "name": "from",
          "type": "address"
        },
        {
          "internalType": "address",
          "name": "to",
          "type": "address"
        },
        {
          "internalType": "uint256",
          "name": "tokenId",
          "type": "uint256"
        },
        {
          "internalType": "bytes",
          "name": "data",
          "type": "bytes"
        }
      ],
      "name": "safeTransferFrom",
      "outputs": [],
      "stateMutability": "nonpayable",
      "type": "function"
    },
    {
      "inputs": [
        {
          "internalType": "address",
          "name": "operator",
          "type": "address"
        },
        {
          "internalType": "bool",
          "name": "approved",
          "type": "bool"
        }
      ],
      "name": "setApprovalForAll",
      "outputs": [],
      "stateMutability": "nonpayable",
      "type": "function"
    },
    {
      "inputs": [
        {
          "internalType": "bytes4",
          "name": "interfaceId",
          "type": "bytes4"
        }
      ],
      "name": "supportsInterface",
      "outputs": [
        {
          "internalType": "bool",
          "name": "",
          "type": "bool"
        }
      ],
      "stateMutability": "view",
      "type": "function"
    },
    {
      "inputs": [],
      "name": "symbol",
      "outputs": [
        {
          "internalType": "string",
          "name": "",
          "type": "string"
        }
      ],
      "stateMutability": "view",
      "type": "function"
    },
    {
      "inputs": [
        {
          "internalType": "uint256",
          "name": "tokenId",
          "type": "uint256"
        }
      ],
      "name": "tokenURI",
      "outputs": [
        {
          "internalType": "string",
          "name": "",
          "type": "string"
        }
      ],
      "stateMutability": "view",
      "type": "function"
    },
    {
      "inputs": [
        {
          "internalType": "address",
          "name": "from",
          "type": "address"
        },
        {
          "internalType": "address",
          "name": "to",
          "type": "address"
        },
        {
          "internalType": "uint256",
          "name": "tokenId",
          "type": "uint256"
        }
      ],
      "name": "transferFrom",
      "outputs": [],
      "stateMutability": "nonpayable",
      "type": "function"
    },
    {
      "inputs": [
        {
          "internalType": "string",
          "name": "_project",
          "type": "string"
        },
        {
          "internalType": "address",
          "name": "_owner",
          "type": "address"
        },
        {
          "internalType": "string",
          "name": "_link",
          "type": "string"
        }
      ],
      "name": "writeNFT",
      "outputs": [],
      "stateMutability": "nonpayable",
      "type": "function"
    }
  ],
  "bytecode": "0x60806040523480156200001157600080fd5b506040518060400160405280601e81526020017f556e797465202d20636f6e747269627574696f6e436f6c6c656374696f6e00008152506040518060400160405280600981526020017f554e595445746573740000000000000000000000000000000000000000000000815250816000908051906020019062000096929190620001cf565b508060019080519060200190620000af929190620001cf565b505050620000fd6040518060400160405280601c81526020017f56697375616c697a6520796f757220636f6e747269627574696f6e21000000008152506200010360201b62000bcf1760201c565b620003ac565b620001a3816040516024016200011a9190620002c0565b6040516020818303038152906040527f41304fac000000000000000000000000000000000000000000000000000000007bffffffffffffffffffffffffffffffffffffffffffffffffffffffff19166020820180517bffffffffffffffffffffffffffffffffffffffffffffffffffffffff8381831617835250505050620001a660201b60201c565b50565b60008151905060006a636f6e736f6c652e6c6f679050602083016000808483855afa5050505050565b828054620001dd9062000336565b90600052602060002090601f0160209004810192826200020157600085556200024d565b82601f106200021c57805160ff19168380011785556200024d565b828001600101855582156200024d579182015b828111156200024c5782518255916020019190600101906200022f565b5b5090506200025c919062000260565b5090565b5b808211156200027b57600081600090555060010162000261565b5090565b60006200028c82620002e4565b620002988185620002ef565b9350620002aa81856020860162000300565b620002b5816200039b565b840191505092915050565b60006020820190508181036000830152620002dc81846200027f565b905092915050565b600081519050919050565b600082825260208201905092915050565b60005b838110156200032057808201518184015260208101905062000303565b8381111562000330576000848401525b50505050565b600060028204905060018216806200034f57607f821691505b602082108114156200036657620003656200036c565b5b50919050565b7f4e487b7100000000000000000000000000000000000000000000000000000000600052602260045260246000fd5b6000601f19601f8301169050919050565b6137de80620003bc6000396000f3fe608060405234801561001057600080fd5b50600436106100ea5760003560e01c806370a082311161008c578063b88d4fde11610066578063b88d4fde1461025b578063ba15322814610277578063c87b56dd14610293578063e985e9c5146102c3576100ea565b806370a08231146101f157806395d89b4114610221578063a22cb4651461023f576100ea565b8063095ea7b3116100c8578063095ea7b31461016d57806323b872dd1461018957806342842e0e146101a55780636352211e146101c1576100ea565b806301ffc9a7146100ef57806306fdde031461011f578063081812fc1461013d575b600080fd5b61010960048036038101906101049190612445565b6102f3565b6040516101169190612a55565b60405180910390f35b6101276103d5565b6040516101349190612a70565b60405180910390f35b61015760048036038101906101529190612516565b610467565b60405161016491906129ee565b60405180910390f35b61018760048036038101906101829190612409565b6104ad565b005b6101a3600480360381019061019e9190612303565b6105c5565b005b6101bf60048036038101906101ba9190612303565b610625565b005b6101db60048036038101906101d69190612516565b610645565b6040516101e891906129ee565b60405180910390f35b61020b6004803603810190610206919061229e565b6106cc565b6040516102189190612c50565b60405180910390f35b610229610784565b6040516102369190612a70565b60405180910390f35b610259600480360381019061025491906123cd565b610816565b005b61027560048036038101906102709190612352565b61082c565b005b610291600480360381019061028c9190612497565b61088e565b005b6102ad60048036038101906102a89190612516565b610a28565b6040516102ba9190612a70565b60405180910390f35b6102dd60048036038101906102d891906122c7565b610b3b565b6040516102ea9190612a55565b60405180910390f35b60007f80ac58cd000000000000000000000000000000000000000000000000000000007bffffffffffffffffffffffffffffffffffffffffffffffffffffffff1916827bffffffffffffffffffffffffffffffffffffffffffffffffffffffff191614806103be57507f5b5e139f000000000000000000000000000000000000000000000000000000007bffffffffffffffffffffffffffffffffffffffffffffffffffffffff1916827bffffffffffffffffffffffffffffffffffffffffffffffffffffffff1916145b806103ce57506103cd82610c68565b5b9050919050565b6060600080546103e490612f00565b80601f016020809104026020016040519081016040528092919081815260200182805461041090612f00565b801561045d5780601f106104325761010080835404028352916020019161045d565b820191906000526020600020905b81548152906001019060200180831161044057829003601f168201915b5050505050905090565b600061047282610cd2565b6004600083815260200190815260200160002060009054906101000a900473ffffffffffffffffffffffffffffffffffffffff169050919050565b60006104b882610645565b90508073ffffffffffffffffffffffffffffffffffffffff168373ffffffffffffffffffffffffffffffffffffffff161415610529576040517f08c379a000000000000000000000000000000000000000000000000000000000815260040161052090612c10565b60405180910390fd5b8073ffffffffffffffffffffffffffffffffffffffff16610548610d1d565b73ffffffffffffffffffffffffffffffffffffffff161480610577575061057681610571610d1d565b610b3b565b5b6105b6576040517f08c379a00000000000000000000000000000000000000000000000000000000081526004016105ad90612c30565b60405180910390fd5b6105c08383610d25565b505050565b6105d66105d0610d1d565b82610dde565b610615576040517f08c379a000000000000000000000000000000000000000000000000000000000815260040161060c90612ad0565b60405180910390fd5b610620838383610e73565b505050565b6106408383836040518060200160405280600081525061082c565b505050565b6000806106518361116d565b9050600073ffffffffffffffffffffffffffffffffffffffff168173ffffffffffffffffffffffffffffffffffffffff1614156106c3576040517f08c379a00000000000000000000000000000000000000000000000000000000081526004016106ba90612bf0565b60405180910390fd5b80915050919050565b60008073ffffffffffffffffffffffffffffffffffffffff168273ffffffffffffffffffffffffffffffffffffffff16141561073d576040517f08c379a000000000000000000000000000000000000000000000000000000000815260040161073490612b90565b60405180910390fd5b600360008373ffffffffffffffffffffffffffffffffffffffff1673ffffffffffffffffffffffffffffffffffffffff168152602001908152602001600020549050919050565b60606001805461079390612f00565b80601f01602080910402602001604051908101604052809291908181526020018280546107bf90612f00565b801561080c5780601f106107e15761010080835404028352916020019161080c565b820191906000526020600020905b8154815290600101906020018083116107ef57829003601f168201915b5050505050905090565b610828610821610d1d565b83836111aa565b5050565b61083d610837610d1d565b83610dde565b61087c576040517f08c379a000000000000000000000000000000000000000000000000000000000815260040161087390612ad0565b60405180910390fd5b61088884848484611317565b50505050565b600061089a6007611373565b90506108a581611381565b60006108b08261141a565b6040516020016108c09190612934565b6040516020818303038152906040529050600060405180610120016040528060fa81526020016136af60fa9139905060006109296108fd8561141a565b88858589604051602001610915959493929190612956565b60405160208183030381529060405261153e565b905060008160405160200161093e9190612912565b604051602081830303815290604052905061098d6040518060400160405280601581526020017f0a2d2d2d2d2d20546f6b656e20555249202d2d2d2d0000000000000000000000815250610bcf565b61099684610bcf565b61099f81610bcf565b6109dd6040518060400160405280601581526020017f2d2d2d2d2d2d2d2d2d2d2d2d2d2d2d2d2d2d2d2d0a0000000000000000000000815250610bcf565b6109e787866116fc565b6109f1858261171a565b610a1460405180606001604052806025815260200161364a60259139863361178e565b610a1e600761182d565b5050505050505050565b6060610a3382610cd2565b6000600660008481526020019081526020016000208054610a5390612f00565b80601f0160208091040260200160405190810160405280929190818152602001828054610a7f90612f00565b8015610acc5780601f10610aa157610100808354040283529160200191610acc565b820191906000526020600020905b815481529060010190602001808311610aaf57829003601f168201915b505050505090506000610add611843565b9050600081511415610af3578192505050610b36565b600082511115610b28578082604051602001610b109291906128ee565b60405160208183030381529060405292505050610b36565b610b318461185a565b925050505b919050565b6000600560008473ffffffffffffffffffffffffffffffffffffffff1673ffffffffffffffffffffffffffffffffffffffff16815260200190815260200160002060008373ffffffffffffffffffffffffffffffffffffffff1673ffffffffffffffffffffffffffffffffffffffff16815260200190815260200160002060009054906101000a900460ff16905092915050565b610c6581604051602401610be39190612a70565b6040516020818303038152906040527f41304fac000000000000000000000000000000000000000000000000000000007bffffffffffffffffffffffffffffffffffffffffffffffffffffffff19166020820180517bffffffffffffffffffffffffffffffffffffffffffffffffffffffff83818316178352505050506118c2565b50565b60007f01ffc9a7000000000000000000000000000000000000000000000000000000007bffffffffffffffffffffffffffffffffffffffffffffffffffffffff1916827bffffffffffffffffffffffffffffffffffffffffffffffffffffffff1916149050919050565b610cdb816118eb565b610d1a576040517f08c379a0000000000000000000000000000000000000000000000000000000008152600401610d1190612bf0565b60405180910390fd5b50565b600033905090565b816004600083815260200190815260200160002060006101000a81548173ffffffffffffffffffffffffffffffffffffffff021916908373ffffffffffffffffffffffffffffffffffffffff160217905550808273ffffffffffffffffffffffffffffffffffffffff16610d9883610645565b73ffffffffffffffffffffffffffffffffffffffff167f8c5be1e5ebec7d5bd14f71427d1e84f3dd0314c0f7b2291e5b200ac8c7c3b92560405160405180910390a45050565b600080610dea83610645565b90508073ffffffffffffffffffffffffffffffffffffffff168473ffffffffffffffffffffffffffffffffffffffff161480610e2c5750610e2b8185610b3b565b5b80610e6a57508373ffffffffffffffffffffffffffffffffffffffff16610e5284610467565b73ffffffffffffffffffffffffffffffffffffffff16145b91505092915050565b8273ffffffffffffffffffffffffffffffffffffffff16610e9382610645565b73ffffffffffffffffffffffffffffffffffffffff1614610ee9576040517f08c379a0000000000000000000000000000000000000000000000000000000008152600401610ee090612b10565b60405180910390fd5b600073ffffffffffffffffffffffffffffffffffffffff168273ffffffffffffffffffffffffffffffffffffffff161415610f59576040517f08c379a0000000000000000000000000000000000000000000000000000000008152600401610f5090612b50565b60405180910390fd5b610f66838383600161192c565b8273ffffffffffffffffffffffffffffffffffffffff16610f8682610645565b73ffffffffffffffffffffffffffffffffffffffff1614610fdc576040517f08c379a0000000000000000000000000000000000000000000000000000000008152600401610fd390612b10565b60405180910390fd5b6004600082815260200190815260200160002060006101000a81549073ffffffffffffffffffffffffffffffffffffffff02191690556001600360008573ffffffffffffffffffffffffffffffffffffffff1673ffffffffffffffffffffffffffffffffffffffff168152602001908152602001600020600082825403925050819055506001600360008473ffffffffffffffffffffffffffffffffffffffff1673ffffffffffffffffffffffffffffffffffffffff16815260200190815260200160002060008282540192505081905550816002600083815260200190815260200160002060006101000a81548173ffffffffffffffffffffffffffffffffffffffff021916908373ffffffffffffffffffffffffffffffffffffffff160217905550808273ffffffffffffffffffffffffffffffffffffffff168473ffffffffffffffffffffffffffffffffffffffff167fddf252ad1be2c89b69c2b068fc378daa952ba7f163c4a11628f55a4df523b3ef60405160405180910390a46111688383836001611a52565b505050565b60006002600083815260200190815260200160002060009054906101000a900473ffffffffffffffffffffffffffffffffffffffff169050919050565b8173ffffffffffffffffffffffffffffffffffffffff168373ffffffffffffffffffffffffffffffffffffffff161415611219576040517f08c379a000000000000000000000000000000000000000000000000000000000815260040161121090612b70565b60405180910390fd5b80600560008573ffffffffffffffffffffffffffffffffffffffff1673ffffffffffffffffffffffffffffffffffffffff16815260200190815260200160002060008473ffffffffffffffffffffffffffffffffffffffff1673ffffffffffffffffffffffffffffffffffffffff16815260200190815260200160002060006101000a81548160ff0219169083151502179055508173ffffffffffffffffffffffffffffffffffffffff168373ffffffffffffffffffffffffffffffffffffffff167f17307eab39ab6107e8899845ad3d59bd9653f200f220920489ca2b5937696c318360405161130a9190612a55565b60405180910390a3505050565b611322848484610e73565b61132e84848484611a58565b61136d576040517f08c379a000000000000000000000000000000000000000000000000000000000815260040161136490612af0565b60405180910390fd5b50505050565b600081600001549050919050565b611417816040516024016113959190612c50565b6040516020818303038152906040527ff82c50f1000000000000000000000000000000000000000000000000000000007bffffffffffffffffffffffffffffffffffffffffffffffffffffffff19166020820180517bffffffffffffffffffffffffffffffffffffffffffffffffffffffff83818316178352505050506118c2565b50565b60606000600161142984611bef565b01905060008167ffffffffffffffff81111561146e577f4e487b7100000000000000000000000000000000000000000000000000000000600052604160045260246000fd5b6040519080825280601f01601f1916602001820160405280156114a05781602001600182028036833780820191505090505b509050600082602001820190505b600115611533578080600190039150507f3031323334353637383961626364656600000000000000000000000000000000600a86061a8153600a858161151d577f4e487b7100000000000000000000000000000000000000000000000000000000600052601260045260246000fd5b049450600085141561152e57611533565b6114ae565b819350505050919050565b6060600082519050600081141561156757604051806020016040528060008152509150506116f7565b600060036002836115789190612d35565b6115829190612d8b565b600461158e9190612dbc565b9050600060208261159f9190612d35565b67ffffffffffffffff8111156115de577f4e487b7100000000000000000000000000000000000000000000000000000000600052604160045260246000fd5b6040519080825280601f01601f1916602001820160405280156116105781602001600182028036833780820191505090505b509050600060405180606001604052806040815260200161366f604091399050600181016020830160005b868110156116b45760038101905062ffffff818a015116603f8160121c168401518060081b905060ff603f83600c1c1686015116810190508060081b905060ff603f8360061c1686015116810190508060081b905060ff603f831686015116810190508060e01b9050808452600484019350505061163b565b5060038606600181146116ce57600281146116de576116e9565b613d3d60f01b60028303526116e9565b603d60f81b60018303525b508484525050819450505050505b919050565b611716828260405180602001604052806000815250611e26565b5050565b611723826118eb565b611762576040517f08c379a000000000000000000000000000000000000000000000000000000000815260040161175990612bb0565b60405180910390fd5b806006600084815260200190815260200160002090805190602001906117899291906120c2565b505050565b6118288383836040516024016117a693929190612a92565b6040516020818303038152906040527f1c7ec448000000000000000000000000000000000000000000000000000000007bffffffffffffffffffffffffffffffffffffffffffffffffffffffff19166020820180517bffffffffffffffffffffffffffffffffffffffffffffffffffffffff83818316178352505050506118c2565b505050565b6001816000016000828254019250508190555050565b606060405180602001604052806000815250905090565b606061186582610cd2565b600061186f611843565b9050600081511161188f57604051806020016040528060008152506118ba565b806118998461141a565b6040516020016118aa9291906128ee565b6040516020818303038152906040525b915050919050565b60008151905060006a636f6e736f6c652e6c6f679050602083016000808483855afa5050505050565b60008073ffffffffffffffffffffffffffffffffffffffff1661190d8361116d565b73ffffffffffffffffffffffffffffffffffffffff1614159050919050565b6001811115611a4c57600073ffffffffffffffffffffffffffffffffffffffff168473ffffffffffffffffffffffffffffffffffffffff16146119c05780600360008673ffffffffffffffffffffffffffffffffffffffff1673ffffffffffffffffffffffffffffffffffffffff16815260200190815260200160002060008282546119b89190612e16565b925050819055505b600073ffffffffffffffffffffffffffffffffffffffff168373ffffffffffffffffffffffffffffffffffffffff1614611a4b5780600360008573ffffffffffffffffffffffffffffffffffffffff1673ffffffffffffffffffffffffffffffffffffffff1681526020019081526020016000206000828254611a439190612d35565b925050819055505b5b50505050565b50505050565b6000611a798473ffffffffffffffffffffffffffffffffffffffff16611e81565b15611be2578373ffffffffffffffffffffffffffffffffffffffff1663150b7a02611aa2610d1d565b8786866040518563ffffffff1660e01b8152600401611ac49493929190612a09565b602060405180830381600087803b158015611ade57600080fd5b505af1925050508015611b0f57506040513d601f19601f82011682018060405250810190611b0c919061246e565b60015b611b92573d8060008114611b3f576040519150601f19603f3d011682016040523d82523d6000602084013e611b44565b606091505b50600081511415611b8a576040517f08c379a0000000000000000000000000000000000000000000000000000000008152600401611b8190612af0565b60405180910390fd5b805181602001fd5b63150b7a0260e01b7bffffffffffffffffffffffffffffffffffffffffffffffffffffffff1916817bffffffffffffffffffffffffffffffffffffffffffffffffffffffff191614915050611be7565b600190505b949350505050565b600080600090507a184f03e93ff9f4daa797ed6e38ed64bf6a1f0100000000000000008310611c73577a184f03e93ff9f4daa797ed6e38ed64bf6a1f0100000000000000008381611c69577f4e487b7100000000000000000000000000000000000000000000000000000000600052601260045260246000fd5b0492506040810190505b6d04ee2d6d415b85acef81000000008310611cd6576d04ee2d6d415b85acef81000000008381611ccc577f4e487b7100000000000000000000000000000000000000000000000000000000600052601260045260246000fd5b0492506020810190505b662386f26fc100008310611d2b57662386f26fc100008381611d21577f4e487b7100000000000000000000000000000000000000000000000000000000600052601260045260246000fd5b0492506010810190505b6305f5e1008310611d7a576305f5e1008381611d70577f4e487b7100000000000000000000000000000000000000000000000000000000600052601260045260246000fd5b0492506008810190505b6127108310611dc5576127108381611dbb577f4e487b7100000000000000000000000000000000000000000000000000000000600052601260045260246000fd5b0492506004810190505b60648310611e0e5760648381611e04577f4e487b7100000000000000000000000000000000000000000000000000000000600052601260045260246000fd5b0492506002810190505b600a8310611e1d576001810190505b80915050919050565b611e308383611ea4565b611e3d6000848484611a58565b611e7c576040517f08c379a0000000000000000000000000000000000000000000000000000000008152600401611e7390612af0565b60405180910390fd5b505050565b6000808273ffffffffffffffffffffffffffffffffffffffff163b119050919050565b600073ffffffffffffffffffffffffffffffffffffffff168273ffffffffffffffffffffffffffffffffffffffff161415611f14576040517f08c379a0000000000000000000000000000000000000000000000000000000008152600401611f0b90612bd0565b60405180910390fd5b611f1d816118eb565b15611f5d576040517f08c379a0000000000000000000000000000000000000000000000000000000008152600401611f5490612b30565b60405180910390fd5b611f6b60008383600161192c565b611f74816118eb565b15611fb4576040517f08c379a0000000000000000000000000000000000000000000000000000000008152600401611fab90612b30565b60405180910390fd5b6001600360008473ffffffffffffffffffffffffffffffffffffffff1673ffffffffffffffffffffffffffffffffffffffff16815260200190815260200160002060008282540192505081905550816002600083815260200190815260200160002060006101000a81548173ffffffffffffffffffffffffffffffffffffffff021916908373ffffffffffffffffffffffffffffffffffffffff160217905550808273ffffffffffffffffffffffffffffffffffffffff16600073ffffffffffffffffffffffffffffffffffffffff167fddf252ad1be2c89b69c2b068fc378daa952ba7f163c4a11628f55a4df523b3ef60405160405180910390a46120be600083836001611a52565b5050565b8280546120ce90612f00565b90600052602060002090601f0160209004810192826120f05760008555612137565b82601f1061210957805160ff1916838001178555612137565b82800160010185558215612137579182015b8281111561213657825182559160200191906001019061211b565b5b5090506121449190612148565b5090565b5b80821115612161576000816000905550600101612149565b5090565b600061217861217384612c90565b612c6b565b90508281526020810184848401111561219057600080fd5b61219b848285612ebe565b509392505050565b60006121b66121b184612cc1565b612c6b565b9050828152602081018484840111156121ce57600080fd5b6121d9848285612ebe565b509392505050565b6000813590506121f0816135ed565b92915050565b60008135905061220581613604565b92915050565b60008135905061221a8161361b565b92915050565b60008151905061222f8161361b565b92915050565b600082601f83011261224657600080fd5b8135612256848260208601612165565b91505092915050565b600082601f83011261227057600080fd5b81356122808482602086016121a3565b91505092915050565b60008135905061229881613632565b92915050565b6000602082840312156122b057600080fd5b60006122be848285016121e1565b91505092915050565b600080604083850312156122da57600080fd5b60006122e8858286016121e1565b92505060206122f9858286016121e1565b9150509250929050565b60008060006060848603121561231857600080fd5b6000612326868287016121e1565b9350506020612337868287016121e1565b925050604061234886828701612289565b9150509250925092565b6000806000806080858703121561236857600080fd5b6000612376878288016121e1565b9450506020612387878288016121e1565b935050604061239887828801612289565b925050606085013567ffffffffffffffff8111156123b557600080fd5b6123c187828801612235565b91505092959194509250565b600080604083850312156123e057600080fd5b60006123ee858286016121e1565b92505060206123ff858286016121f6565b9150509250929050565b6000806040838503121561241c57600080fd5b600061242a858286016121e1565b925050602061243b85828601612289565b9150509250929050565b60006020828403121561245757600080fd5b60006124658482850161220b565b91505092915050565b60006020828403121561248057600080fd5b600061248e84828501612220565b91505092915050565b6000806000606084860312156124ac57600080fd5b600084013567ffffffffffffffff8111156124c657600080fd5b6124d28682870161225f565b93505060206124e3868287016121e1565b925050604084013567ffffffffffffffff81111561250057600080fd5b61250c8682870161225f565b9150509250925092565b60006020828403121561252857600080fd5b600061253684828501612289565b91505092915050565b61254881612e4a565b82525050565b61255781612e5c565b82525050565b600061256882612cf2565b6125728185612d08565b9350612582818560208601612ecd565b61258b8161301f565b840191505092915050565b60006125a182612cfd565b6125ab8185612d19565b93506125bb818560208601612ecd565b6125c48161301f565b840191505092915050565b60006125da82612cfd565b6125e48185612d2a565b93506125f4818560208601612ecd565b80840191505092915050565b600061260d602d83612d19565b915061261882613030565b604082019050919050565b6000612630604983612d2a565b915061263b8261307f565b604982019050919050565b6000612653603283612d19565b915061265e826130f4565b604082019050919050565b6000612676602583612d19565b915061268182613143565b604082019050919050565b6000612699601c83612d19565b91506126a482613192565b602082019050919050565b60006126bc600d83612d2a565b91506126c7826131bb565b600d82019050919050565b60006126df602483612d19565b91506126ea826131e4565b604082019050919050565b6000612702601983612d19565b915061270d82613233565b602082019050919050565b6000612725601183612d2a565b91506127308261325c565b601182019050919050565b6000612748602983612d19565b915061275382613285565b604082019050919050565b600061276b602e83612d19565b9150612776826132d4565b604082019050919050565b600061278e607383612d2a565b915061279982613323565b607382019050919050565b60006127b1600283612d2a565b91506127bc826133be565b600282019050919050565b60006127d4602083612d19565b91506127df826133e7565b602082019050919050565b60006127f7602483612d2a565b915061280282613410565b602482019050919050565b600061281a601883612d19565b91506128258261345f565b602082019050919050565b600061283d602183612d19565b915061284882613488565b604082019050919050565b6000612860601d83612d2a565b915061286b826134d7565b601d82019050919050565b6000612883603d83612d19565b915061288e82613500565b604082019050919050565b60006128a6601d83612d2a565b91506128b18261354f565b601d82019050919050565b60006128c9604283612d2a565b91506128d482613578565b604282019050919050565b6128e881612eb4565b82525050565b60006128fa82856125cf565b915061290682846125cf565b91508190509392505050565b600061291d82612853565b915061292982846125cf565b915081905092915050565b600061293f82612899565b915061294b82846125cf565b915081905092915050565b6000612961826128bc565b915061296d82886125cf565b915061297882612623565b9150612983826127ea565b915061298f82876125cf565b915061299a826126af565b91506129a682866125cf565b91506129b182612718565b91506129bd82856125cf565b91506129c882612781565b91506129d482846125cf565b91506129df826127a4565b91508190509695505050505050565b6000602082019050612a03600083018461253f565b92915050565b6000608082019050612a1e600083018761253f565b612a2b602083018661253f565b612a3860408301856128df565b8181036060830152612a4a818461255d565b905095945050505050565b6000602082019050612a6a600083018461254e565b92915050565b60006020820190508181036000830152612a8a8184612596565b905092915050565b60006060820190508181036000830152612aac8186612596565b9050612abb60208301856128df565b612ac8604083018461253f565b949350505050565b60006020820190508181036000830152612ae981612600565b9050919050565b60006020820190508181036000830152612b0981612646565b9050919050565b60006020820190508181036000830152612b2981612669565b9050919050565b60006020820190508181036000830152612b498161268c565b9050919050565b60006020820190508181036000830152612b69816126d2565b9050919050565b60006020820190508181036000830152612b89816126f5565b9050919050565b60006020820190508181036000830152612ba98161273b565b9050919050565b60006020820190508181036000830152612bc98161275e565b9050919050565b60006020820190508181036000830152612be9816127c7565b9050919050565b60006020820190508181036000830152612c098161280d565b9050919050565b60006020820190508181036000830152612c2981612830565b9050919050565b60006020820190508181036000830152612c4981612876565b9050919050565b6000602082019050612c6560008301846128df565b92915050565b6000612c75612c86565b9050612c818282612f32565b919050565b6000604051905090565b600067ffffffffffffffff821115612cab57612caa612ff0565b5b612cb48261301f565b9050602081019050919050565b600067ffffffffffffffff821115612cdc57612cdb612ff0565b5b612ce58261301f565b9050602081019050919050565b600081519050919050565b600081519050919050565b600082825260208201905092915050565b600082825260208201905092915050565b600081905092915050565b6000612d4082612eb4565b9150612d4b83612eb4565b9250827fffffffffffffffffffffffffffffffffffffffffffffffffffffffffffffffff03821115612d8057612d7f612f63565b5b828201905092915050565b6000612d9682612eb4565b9150612da183612eb4565b925082612db157612db0612f92565b5b828204905092915050565b6000612dc782612eb4565b9150612dd283612eb4565b9250817fffffffffffffffffffffffffffffffffffffffffffffffffffffffffffffffff0483118215151615612e0b57612e0a612f63565b5b828202905092915050565b6000612e2182612eb4565b9150612e2c83612eb4565b925082821015612e3f57612e3e612f63565b5b828203905092915050565b6000612e5582612e94565b9050919050565b60008115159050919050565b60007fffffffff0000000000000000000000000000000000000000000000000000000082169050919050565b600073ffffffffffffffffffffffffffffffffffffffff82169050919050565b6000819050919050565b82818337600083830152505050565b60005b83811015612eeb578082015181840152602081019050612ed0565b83811115612efa576000848401525b50505050565b60006002820490506001821680612f1857607f821691505b60208210811415612f2c57612f2b612fc1565b5b50919050565b612f3b8261301f565b810181811067ffffffffffffffff82111715612f5a57612f59612ff0565b5b80604052505050565b7f4e487b7100000000000000000000000000000000000000000000000000000000600052601160045260246000fd5b7f4e487b7100000000000000000000000000000000000000000000000000000000600052601260045260246000fd5b7f4e487b7100000000000000000000000000000000000000000000000000000000600052602260045260246000fd5b7f4e487b7100000000000000000000000000000000000000000000000000000000600052604160045260246000fd5b6000601f19601f8301169050919050565b7f4552433732313a2063616c6c6572206973206e6f7420746f6b656e206f776e6560008201527f72206f7220617070726f76656400000000000000000000000000000000000000602082015250565b7f7d2c7b22646973706c61795f74797065223a22626f6f73745f70657263656e7460008201527f616765222c2274726169745f74797065223a22636f6e74697262757465222c2260208201527f76616c7565223a32300000000000000000000000000000000000000000000000604082015250565b7f4552433732313a207472616e7366657220746f206e6f6e20455243373231526560008201527f63656976657220696d706c656d656e7465720000000000000000000000000000602082015250565b7f4552433732313a207472616e736665722066726f6d20696e636f72726563742060008201527f6f776e6572000000000000000000000000000000000000000000000000000000602082015250565b7f4552433732313a20746f6b656e20616c7265616479206d696e74656400000000600082015250565b7f227d5d2c20226e616d65223a2200000000000000000000000000000000000000600082015250565b7f4552433732313a207472616e7366657220746f20746865207a65726f2061646460008201527f7265737300000000000000000000000000000000000000000000000000000000602082015250565b7f4552433732313a20617070726f766520746f2063616c6c657200000000000000600082015250565b7f222c226465736372697074696f6e223a22000000000000000000000000000000600082015250565b7f4552433732313a2061646472657373207a65726f206973206e6f74206120766160008201527f6c6964206f776e65720000000000000000000000000000000000000000000000602082015250565b7f45524337323155524953746f726167653a2055524920736574206f66206e6f6e60008201527f6578697374656e7420746f6b656e000000000000000000000000000000000000602082015250565b7f204d6f726520696e666f3a2068747470733a2f2f756e7974652e7465616d2f2260008201527f2c22696d616765223a2022697066733a2f2f516d623858704a4759595047686460208201527f63556137445033574a4c45636433333765687743594e79454e4d76707a33423760408201527f222c2265787465726e616c5f75726c223a202200000000000000000000000000606082015250565b7f227d000000000000000000000000000000000000000000000000000000000000600082015250565b7f4552433732313a206d696e7420746f20746865207a65726f2061646472657373600082015250565b7f7d2c207b2274726169745f74797065223a2250726f6a656374222c2276616c7560008201527f65223a2200000000000000000000000000000000000000000000000000000000602082015250565b7f4552433732313a20696e76616c696420746f6b656e2049440000000000000000600082015250565b7f4552433732313a20617070726f76616c20746f2063757272656e74206f776e6560008201527f7200000000000000000000000000000000000000000000000000000000000000602082015250565b7f646174613a6170706c69636174696f6e2f6a736f6e3b6261736536342c000000600082015250565b7f4552433732313a20617070726f76652063616c6c6572206973206e6f7420746f60008201527f6b656e206f776e6572206f7220617070726f76656420666f7220616c6c000000602082015250565b7fe382b3e383ace382afe382b7e383a7e383b3e38386e382b9e383882023000000600082015250565b7f7b2261747472696275746573223a5b7b22646973706c61795f74797065223a2260008201527f6e756d626572222c2274726169745f74797065223a226964222c2276616c756560208201527f223a000000000000000000000000000000000000000000000000000000000000604082015250565b6135f681612e4a565b811461360157600080fd5b50565b61360d81612e5c565b811461361857600080fd5b50565b61362481612e68565b811461362f57600080fd5b50565b61363b81612eb4565b811461364657600080fd5b5056fe416e204e465420772f20494420257320686173206265656e206d696e74656420746f2025734142434445464748494a4b4c4d4e4f505152535455565758595a6162636465666768696a6b6c6d6e6f707172737475767778797a303132333435363738392b2f4e46547320617474657374696e6720746f20746865697220636f6e747269627574696f6e20696e207468652044414f73207265636f7264656420627920556e7974652e205769746820556e7974652c206d656d626572732063616e20656173696c79207265636f72642070726f706f73616c732c20636f6e747269627574696f6e7320616e642070726169736520636f6d6d656e7473207573696e6720736c61736820636f6d6d616e64732e2057652063616e20616c736f2073656e6420455243323020746f6b656e732c204e4654206f7220574c20646570656e64696e67206f6e2077686174206973206265696e67207265636f726465642ea26469706673582212208e1fbdd3852cd847ebad7d839548c6c2918de8e65d912027413e3a57ab66ff5864736f6c63430008040033",
  "linkReferences": {},
  "deployedLinkReferences": {}
}