{
  "_format": "hh-sol-artifact-1",
  "contractName": "Unyte",
  "sourceName": "contracts/Unyte.sol",
  "abi": [
    {
      "anonymous": false,
      "inputs": [
        {
          "indexed": false,
          "internalType": "uint256",
          "name": "taskId",
          "type": "uint256"
        },
        {
          "indexed": false,
          "internalType": "string",
          "name": "content",
          "type": "string"
        }
      ],
      "name": "TaskAdded",
      "type": "event"
    },
    {
      "anonymous": false,
      "inputs": [
        {
          "indexed": false,
          "internalType": "uint256",
          "name": "taskId",
          "type": "uint256"
        }
      ],
      "name": "TaskCompleted",
      "type": "event"
    },
    {
      "anonymous": false,
      "inputs": [
        {
          "indexed": false,
          "internalType": "uint256",
          "name": "taskId",
          "type": "uint256"
        },
        {
          "indexed": false,
          "internalType": "string",
          "name": "from",
          "type": "string"
        },
        {
          "indexed": false,
          "internalType": "string",
          "name": "to",
          "type": "string"
        },
        {
          "indexed": false,
          "internalType": "string",
          "name": "content",
          "type": "string"
        }
      ],
      "name": "ThankAdded",
      "type": "event"
    },
    {
      "inputs": [
        {
          "internalType": "string",
          "name": "teamId",
          "type": "string"
        },
        {
          "internalType": "string",
          "name": "teamName",
          "type": "string"
        },
        {
          "internalType": "string",
          "name": "teamIconURL",
          "type": "string"
        },
        {
          "internalType": "string",
          "name": "userId",
          "type": "string"
        },
        {
          "internalType": "string",
          "name": "userName",
          "type": "string"
        },
        {
          "internalType": "string",
          "name": "userIconURL",
          "type": "string"
        },
        {
          "internalType": "string",
          "name": "content",
          "type": "string"
        }
      ],
      "name": "addTask",
      "outputs": [],
      "stateMutability": "nonpayable",
      "type": "function"
    },
    {
      "inputs": [
        {
          "internalType": "uint256",
          "name": "taskId",
          "type": "uint256"
        },
        {
          "internalType": "string",
          "name": "from",
          "type": "string"
        },
        {
          "internalType": "string",
          "name": "fromName",
          "type": "string"
        },
        {
          "internalType": "string",
          "name": "fromIconURL",
          "type": "string"
        },
        {
          "internalType": "string",
          "name": "to",
          "type": "string"
        },
        {
          "internalType": "string",
          "name": "toName",
          "type": "string"
        },
        {
          "internalType": "string",
          "name": "toIconURL",
          "type": "string"
        },
        {
          "internalType": "string",
          "name": "content",
          "type": "string"
        }
      ],
      "name": "addThank",
      "outputs": [],
      "stateMutability": "nonpayable",
      "type": "function"
    },
    {
      "inputs": [
        {
          "internalType": "uint256",
          "name": "taskId",
          "type": "uint256"
        }
      ],
      "name": "completeTask",
      "outputs": [],
      "stateMutability": "nonpayable",
      "type": "function"
    },
    {
      "inputs": [],
      "name": "getAllTasks",
      "outputs": [
        {
          "components": [
            {
              "internalType": "uint256",
              "name": "taskId",
              "type": "uint256"
            },
            {
              "internalType": "string",
              "name": "teamId",
              "type": "string"
            },
            {
              "internalType": "string",
              "name": "teamName",
              "type": "string"
            },
            {
              "internalType": "string",
              "name": "teamIconURL",
              "type": "string"
            },
            {
              "internalType": "string",
              "name": "userId",
              "type": "string"
            },
            {
              "internalType": "string",
              "name": "userName",
              "type": "string"
            },
            {
              "internalType": "string",
              "name": "userIconURL",
              "type": "string"
            },
            {
              "internalType": "string",
              "name": "content",
              "type": "string"
            },
            {
              "internalType": "bool",
              "name": "completed",
              "type": "bool"
            }
          ],
          "internalType": "struct Unyte.Task[]",
          "name": "",
          "type": "tuple[]"
        }
      ],
      "stateMutability": "view",
      "type": "function"
    },
    {
      "inputs": [],
      "name": "getAllThanks",
      "outputs": [
        {
          "components": [
            {
              "internalType": "uint256",
              "name": "taskId",
              "type": "uint256"
            },
            {
              "internalType": "string",
              "name": "from",
              "type": "string"
            },
            {
              "internalType": "string",
              "name": "fromName",
              "type": "string"
            },
            {
              "internalType": "string",
              "name": "fromIconURL",
              "type": "string"
            },
            {
              "internalType": "string",
              "name": "to",
              "type": "string"
            },
            {
              "internalType": "string",
              "name": "toName",
              "type": "string"
            },
            {
              "internalType": "string",
              "name": "toIconURL",
              "type": "string"
            },
            {
              "internalType": "string",
              "name": "content",
              "type": "string"
            }
          ],
          "internalType": "struct Unyte.Thank[]",
          "name": "",
          "type": "tuple[]"
        }
      ],
      "stateMutability": "view",
      "type": "function"
    },
    {
      "inputs": [],
      "name": "taskCount",
      "outputs": [
        {
          "internalType": "uint256",
          "name": "",
          "type": "uint256"
        }
      ],
      "stateMutability": "view",
      "type": "function"
    },
    {
      "inputs": [
        {
          "internalType": "uint256",
          "name": "",
          "type": "uint256"
        }
      ],
      "name": "tasks",
      "outputs": [
        {
          "internalType": "uint256",
          "name": "taskId",
          "type": "uint256"
        },
        {
          "internalType": "string",
          "name": "teamId",
          "type": "string"
        },
        {
          "internalType": "string",
          "name": "teamName",
          "type": "string"
        },
        {
          "internalType": "string",
          "name": "teamIconURL",
          "type": "string"
        },
        {
          "internalType": "string",
          "name": "userId",
          "type": "string"
        },
        {
          "internalType": "string",
          "name": "userName",
          "type": "string"
        },
        {
          "internalType": "string",
          "name": "userIconURL",
          "type": "string"
        },
        {
          "internalType": "string",
          "name": "content",
          "type": "string"
        },
        {
          "internalType": "bool",
          "name": "completed",
          "type": "bool"
        }
      ],
      "stateMutability": "view",
      "type": "function"
    },
    {
      "inputs": [
        {
          "internalType": "uint256",
          "name": "",
          "type": "uint256"
        }
      ],
      "name": "thanks",
      "outputs": [
        {
          "internalType": "uint256",
          "name": "taskId",
          "type": "uint256"
        },
        {
          "internalType": "string",
          "name": "from",
          "type": "string"
        },
        {
          "internalType": "string",
          "name": "fromName",
          "type": "string"
        },
        {
          "internalType": "string",
          "name": "fromIconURL",
          "type": "string"
        },
        {
          "internalType": "string",
          "name": "to",
          "type": "string"
        },
        {
          "internalType": "string",
          "name": "toName",
          "type": "string"
        },
        {
          "internalType": "string",
          "name": "toIconURL",
          "type": "string"
        },
        {
          "internalType": "string",
          "name": "content",
          "type": "string"
        }
      ],
      "stateMutability": "view",
      "type": "function"
    },
    {
      "inputs": [],
      "name": "thanksCount",
      "outputs": [
        {
          "internalType": "uint256",
          "name": "",
          "type": "uint256"
        }
      ],
      "stateMutability": "view",
      "type": "function"
    }
  ],
  "bytecode": "0x608060405234801561001057600080fd5b50612560806100206000396000f3fe608060405234801561001057600080fd5b50600436106100935760003560e01c8063b4da1e7f11610066578063b4da1e7f14610141578063b6cb58a51461015f578063e1e295581461017d578063e3a24f6f14610199578063edffa961146101b557610093565b8063779900b414610098578063797f8896146100b65780638d977672146100d25780639aa7d3b31461010a575b600080fd5b6100a06101d3565b6040516100ad9190611b12565b60405180910390f35b6100d060048036038101906100cb9190611ca9565b6106c5565b005b6100ec60048036038101906100e79190611e23565b61084b565b60405161010199989796959493929190611eb8565b60405180910390f35b610124600480360381019061011f9190611e23565b610c5e565b604051610138989796959493929190611f76565b60405180910390f35b61014961105e565b60405161015691906121c1565b60405180910390f35b610167611536565b60405161017491906121e3565b60405180910390f35b61019760048036038101906101929190611e23565b61153c565b005b6101b360048036038101906101ae91906121fe565b6115aa565b005b6101bd611758565b6040516101ca91906121e3565b60405180910390f35b6060600060015467ffffffffffffffff8111156101f3576101f2611b7e565b5b60405190808252806020026020018201604052801561022c57816020015b61021961175e565b8152602001906001900390816102115790505b5090506000600190505b60015481116106bd57600080828152602001908152602001600020604051806101200160405290816000820154815260200160018201805461027790612393565b80601f01602080910402602001604051908101604052809291908181526020018280546102a390612393565b80156102f05780601f106102c5576101008083540402835291602001916102f0565b820191906000526020600020905b8154815290600101906020018083116102d357829003601f168201915b5050505050815260200160028201805461030990612393565b80601f016020809104026020016040519081016040528092919081815260200182805461033590612393565b80156103825780601f1061035757610100808354040283529160200191610382565b820191906000526020600020905b81548152906001019060200180831161036557829003601f168201915b5050505050815260200160038201805461039b90612393565b80601f01602080910402602001604051908101604052809291908181526020018280546103c790612393565b80156104145780601f106103e957610100808354040283529160200191610414565b820191906000526020600020905b8154815290600101906020018083116103f757829003601f168201915b5050505050815260200160048201805461042d90612393565b80601f016020809104026020016040519081016040528092919081815260200182805461045990612393565b80156104a65780601f1061047b576101008083540402835291602001916104a6565b820191906000526020600020905b81548152906001019060200180831161048957829003601f168201915b505050505081526020016005820180546104bf90612393565b80601f01602080910402602001604051908101604052809291908181526020018280546104eb90612393565b80156105385780601f1061050d57610100808354040283529160200191610538565b820191906000526020600020905b81548152906001019060200180831161051b57829003601f168201915b5050505050815260200160068201805461055190612393565b80601f016020809104026020016040519081016040528092919081815260200182805461057d90612393565b80156105ca5780601f1061059f576101008083540402835291602001916105ca565b820191906000526020600020905b8154815290600101906020018083116105ad57829003601f168201915b505050505081526020016007820180546105e390612393565b80601f016020809104026020016040519081016040528092919081815260200182805461060f90612393565b801561065c5780601f106106315761010080835404028352916020019161065c565b820191906000526020600020905b81548152906001019060200180831161063f57829003601f168201915b505050505081526020016008820160009054906101000a900460ff1615151515815250508260018361068e91906123f4565b8151811061069f5761069e612428565b5b602002602001018190525080806106b590612457565b915050610236565b508091505090565b600360008154809291906106d890612457565b9190505550604051806101000160405280898152602001888152602001878152602001868152602001858152602001848152602001838152602001828152506002600060035481526020019081526020016000206000820151816000015560208201518160010190805190602001906107529291906117ac565b50604082015181600201908051906020019061076f9291906117ac565b50606082015181600301908051906020019061078c9291906117ac565b5060808201518160040190805190602001906107a99291906117ac565b5060a08201518160050190805190602001906107c69291906117ac565b5060c08201518160060190805190602001906107e39291906117ac565b5060e08201518160070190805190602001906108009291906117ac565b509050507fbd4d4a26bd4a72bc214248c546bb08c0228d6d14d01a9d5cb4b133d9ba4aec6c8888868460405161083994939291906124a0565b60405180910390a15050505050505050565b600060205280600052604060002060009150905080600001549080600101805461087490612393565b80601f01602080910402602001604051908101604052809291908181526020018280546108a090612393565b80156108ed5780601f106108c2576101008083540402835291602001916108ed565b820191906000526020600020905b8154815290600101906020018083116108d057829003601f168201915b50505050509080600201805461090290612393565b80601f016020809104026020016040519081016040528092919081815260200182805461092e90612393565b801561097b5780601f106109505761010080835404028352916020019161097b565b820191906000526020600020905b81548152906001019060200180831161095e57829003601f168201915b50505050509080600301805461099090612393565b80601f01602080910402602001604051908101604052809291908181526020018280546109bc90612393565b8015610a095780601f106109de57610100808354040283529160200191610a09565b820191906000526020600020905b8154815290600101906020018083116109ec57829003601f168201915b505050505090806004018054610a1e90612393565b80601f0160208091040260200160405190810160405280929190818152602001828054610a4a90612393565b8015610a975780601f10610a6c57610100808354040283529160200191610a97565b820191906000526020600020905b815481529060010190602001808311610a7a57829003601f168201915b505050505090806005018054610aac90612393565b80601f0160208091040260200160405190810160405280929190818152602001828054610ad890612393565b8015610b255780601f10610afa57610100808354040283529160200191610b25565b820191906000526020600020905b815481529060010190602001808311610b0857829003601f168201915b505050505090806006018054610b3a90612393565b80601f0160208091040260200160405190810160405280929190818152602001828054610b6690612393565b8015610bb35780601f10610b8857610100808354040283529160200191610bb3565b820191906000526020600020905b815481529060010190602001808311610b9657829003601f168201915b505050505090806007018054610bc890612393565b80601f0160208091040260200160405190810160405280929190818152602001828054610bf490612393565b8015610c415780601f10610c1657610100808354040283529160200191610c41565b820191906000526020600020905b815481529060010190602001808311610c2457829003601f168201915b5050505050908060080160009054906101000a900460ff16905089565b6002602052806000526040600020600091509050806000015490806001018054610c8790612393565b80601f0160208091040260200160405190810160405280929190818152602001828054610cb390612393565b8015610d005780601f10610cd557610100808354040283529160200191610d00565b820191906000526020600020905b815481529060010190602001808311610ce357829003601f168201915b505050505090806002018054610d1590612393565b80601f0160208091040260200160405190810160405280929190818152602001828054610d4190612393565b8015610d8e5780601f10610d6357610100808354040283529160200191610d8e565b820191906000526020600020905b815481529060010190602001808311610d7157829003601f168201915b505050505090806003018054610da390612393565b80601f0160208091040260200160405190810160405280929190818152602001828054610dcf90612393565b8015610e1c5780601f10610df157610100808354040283529160200191610e1c565b820191906000526020600020905b815481529060010190602001808311610dff57829003601f168201915b505050505090806004018054610e3190612393565b80601f0160208091040260200160405190810160405280929190818152602001828054610e5d90612393565b8015610eaa5780601f10610e7f57610100808354040283529160200191610eaa565b820191906000526020600020905b815481529060010190602001808311610e8d57829003601f168201915b505050505090806005018054610ebf90612393565b80601f0160208091040260200160405190810160405280929190818152602001828054610eeb90612393565b8015610f385780601f10610f0d57610100808354040283529160200191610f38565b820191906000526020600020905b815481529060010190602001808311610f1b57829003601f168201915b505050505090806006018054610f4d90612393565b80601f0160208091040260200160405190810160405280929190818152602001828054610f7990612393565b8015610fc65780601f10610f9b57610100808354040283529160200191610fc6565b820191906000526020600020905b815481529060010190602001808311610fa957829003601f168201915b505050505090806007018054610fdb90612393565b80601f016020809104026020016040519081016040528092919081815260200182805461100790612393565b80156110545780601f1061102957610100808354040283529160200191611054565b820191906000526020600020905b81548152906001019060200180831161103757829003601f168201915b5050505050905088565b6060600060035467ffffffffffffffff81111561107e5761107d611b7e565b5b6040519080825280602002602001820160405280156110b757816020015b6110a4611832565b81526020019060019003908161109c5790505b5090506000600190505b600354811161152e5760026000828152602001908152602001600020604051806101000160405290816000820154815260200160018201805461110390612393565b80601f016020809104026020016040519081016040528092919081815260200182805461112f90612393565b801561117c5780601f106111515761010080835404028352916020019161117c565b820191906000526020600020905b81548152906001019060200180831161115f57829003601f168201915b5050505050815260200160028201805461119590612393565b80601f01602080910402602001604051908101604052809291908181526020018280546111c190612393565b801561120e5780601f106111e35761010080835404028352916020019161120e565b820191906000526020600020905b8154815290600101906020018083116111f157829003601f168201915b5050505050815260200160038201805461122790612393565b80601f016020809104026020016040519081016040528092919081815260200182805461125390612393565b80156112a05780601f10611275576101008083540402835291602001916112a0565b820191906000526020600020905b81548152906001019060200180831161128357829003601f168201915b505050505081526020016004820180546112b990612393565b80601f01602080910402602001604051908101604052809291908181526020018280546112e590612393565b80156113325780601f1061130757610100808354040283529160200191611332565b820191906000526020600020905b81548152906001019060200180831161131557829003601f168201915b5050505050815260200160058201805461134b90612393565b80601f016020809104026020016040519081016040528092919081815260200182805461137790612393565b80156113c45780601f10611399576101008083540402835291602001916113c4565b820191906000526020600020905b8154815290600101906020018083116113a757829003601f168201915b505050505081526020016006820180546113dd90612393565b80601f016020809104026020016040519081016040528092919081815260200182805461140990612393565b80156114565780601f1061142b57610100808354040283529160200191611456565b820191906000526020600020905b81548152906001019060200180831161143957829003601f168201915b5050505050815260200160078201805461146f90612393565b80601f016020809104026020016040519081016040528092919081815260200182805461149b90612393565b80156114e85780601f106114bd576101008083540402835291602001916114e8565b820191906000526020600020905b8154815290600101906020018083116114cb57829003601f168201915b505050505081525050826001836114ff91906123f4565b815181106115105761150f612428565b5b6020026020010181905250808061152690612457565b9150506110c1565b508091505090565b60015481565b6000806000838152602001908152602001600020905060018160080160006101000a81548160ff0219169083151502179055507fc1fa7142cfb933d0855114a3bffde296944c30b727f297c14d0db4d553d3a5c78260405161159e91906121e3565b60405180910390a15050565b600160008154809291906115bd90612457565b919050555060405180610120016040528060015481526020018881526020018781526020018681526020018581526020018481526020018381526020018281526020016000151581525060008060015481526020019081526020016000206000820151816000015560208201518160010190805190602001906116419291906117ac565b50604082015181600201908051906020019061165e9291906117ac565b50606082015181600301908051906020019061167b9291906117ac565b5060808201518160040190805190602001906116989291906117ac565b5060a08201518160050190805190602001906116b59291906117ac565b5060c08201518160060190805190602001906116d29291906117ac565b5060e08201518160070190805190602001906116ef9291906117ac565b506101008201518160080160006101000a81548160ff0219169083151502179055509050507f2ee7ce8bac091b03a0c391c07ee88a246bdd72bdc6b1ef1ce4d99220595d32c5600154826040516117479291906124fa565b60405180910390a150505050505050565b60035481565b60405180610120016040528060008152602001606081526020016060815260200160608152602001606081526020016060815260200160608152602001606081526020016000151581525090565b8280546117b890612393565b90600052602060002090601f0160209004810192826117da5760008555611821565b82601f106117f357805160ff1916838001178555611821565b82800160010185558215611821579182015b82811115611820578251825591602001919060010190611805565b5b50905061182e9190611877565b5090565b60405180610100016040528060008152602001606081526020016060815260200160608152602001606081526020016060815260200160608152602001606081525090565b5b80821115611890576000816000905550600101611878565b5090565b600081519050919050565b600082825260208201905092915050565b6000819050602082019050919050565b6000819050919050565b6118d3816118c0565b82525050565b600081519050919050565b600082825260208201905092915050565b60005b838110156119135780820151818401526020810190506118f8565b83811115611922576000848401525b50505050565b6000601f19601f8301169050919050565b6000611944826118d9565b61194e81856118e4565b935061195e8185602086016118f5565b61196781611928565b840191505092915050565b60008115159050919050565b61198781611972565b82525050565b6000610120830160008301516119a660008601826118ca565b50602083015184820360208601526119be8282611939565b915050604083015184820360408601526119d88282611939565b915050606083015184820360608601526119f28282611939565b91505060808301518482036080860152611a0c8282611939565b91505060a083015184820360a0860152611a268282611939565b91505060c083015184820360c0860152611a408282611939565b91505060e083015184820360e0860152611a5a8282611939565b915050610100830151611a7161010086018261197e565b508091505092915050565b6000611a88838361198d565b905092915050565b6000602082019050919050565b6000611aa882611894565b611ab2818561189f565b935083602082028501611ac4856118b0565b8060005b85811015611b005784840389528151611ae18582611a7c565b9450611aec83611a90565b925060208a01995050600181019050611ac8565b50829750879550505050505092915050565b60006020820190508181036000830152611b2c8184611a9d565b905092915050565b6000604051905090565b600080fd5b600080fd5b611b51816118c0565b8114611b5c57600080fd5b50565b600081359050611b6e81611b48565b92915050565b600080fd5b600080fd5b7f4e487b7100000000000000000000000000000000000000000000000000000000600052604160045260246000fd5b611bb682611928565b810181811067ffffffffffffffff82111715611bd557611bd4611b7e565b5b80604052505050565b6000611be8611b34565b9050611bf48282611bad565b919050565b600067ffffffffffffffff821115611c1457611c13611b7e565b5b611c1d82611928565b9050602081019050919050565b82818337600083830152505050565b6000611c4c611c4784611bf9565b611bde565b905082815260208101848484011115611c6857611c67611b79565b5b611c73848285611c2a565b509392505050565b600082601f830112611c9057611c8f611b74565b5b8135611ca0848260208601611c39565b91505092915050565b600080600080600080600080610100898b031215611cca57611cc9611b3e565b5b6000611cd88b828c01611b5f565b985050602089013567ffffffffffffffff811115611cf957611cf8611b43565b5b611d058b828c01611c7b565b975050604089013567ffffffffffffffff811115611d2657611d25611b43565b5b611d328b828c01611c7b565b965050606089013567ffffffffffffffff811115611d5357611d52611b43565b5b611d5f8b828c01611c7b565b955050608089013567ffffffffffffffff811115611d8057611d7f611b43565b5b611d8c8b828c01611c7b565b94505060a089013567ffffffffffffffff811115611dad57611dac611b43565b5b611db98b828c01611c7b565b93505060c089013567ffffffffffffffff811115611dda57611dd9611b43565b5b611de68b828c01611c7b565b92505060e089013567ffffffffffffffff811115611e0757611e06611b43565b5b611e138b828c01611c7b565b9150509295985092959890939650565b600060208284031215611e3957611e38611b3e565b5b6000611e4784828501611b5f565b91505092915050565b611e59816118c0565b82525050565b600082825260208201905092915050565b6000611e7b826118d9565b611e858185611e5f565b9350611e958185602086016118f5565b611e9e81611928565b840191505092915050565b611eb281611972565b82525050565b600061012082019050611ece600083018c611e50565b8181036020830152611ee0818b611e70565b90508181036040830152611ef4818a611e70565b90508181036060830152611f088189611e70565b90508181036080830152611f1c8188611e70565b905081810360a0830152611f308187611e70565b905081810360c0830152611f448186611e70565b905081810360e0830152611f588185611e70565b9050611f68610100830184611ea9565b9a9950505050505050505050565b600061010082019050611f8c600083018b611e50565b8181036020830152611f9e818a611e70565b90508181036040830152611fb28189611e70565b90508181036060830152611fc68188611e70565b90508181036080830152611fda8187611e70565b905081810360a0830152611fee8186611e70565b905081810360c08301526120028185611e70565b905081810360e08301526120168184611e70565b90509998505050505050505050565b600081519050919050565b600082825260208201905092915050565b6000819050602082019050919050565b60006101008301600083015161206a60008601826118ca565b50602083015184820360208601526120828282611939565b9150506040830151848203604086015261209c8282611939565b915050606083015184820360608601526120b68282611939565b915050608083015184820360808601526120d08282611939565b91505060a083015184820360a08601526120ea8282611939565b91505060c083015184820360c08601526121048282611939565b91505060e083015184820360e086015261211e8282611939565b9150508091505092915050565b60006121378383612051565b905092915050565b6000602082019050919050565b600061215782612025565b6121618185612030565b93508360208202850161217385612041565b8060005b858110156121af5784840389528151612190858261212b565b945061219b8361213f565b925060208a01995050600181019050612177565b50829750879550505050505092915050565b600060208201905081810360008301526121db818461214c565b905092915050565b60006020820190506121f86000830184611e50565b92915050565b600080600080600080600060e0888a03121561221d5761221c611b3e565b5b600088013567ffffffffffffffff81111561223b5761223a611b43565b5b6122478a828b01611c7b565b975050602088013567ffffffffffffffff81111561226857612267611b43565b5b6122748a828b01611c7b565b965050604088013567ffffffffffffffff81111561229557612294611b43565b5b6122a18a828b01611c7b565b955050606088013567ffffffffffffffff8111156122c2576122c1611b43565b5b6122ce8a828b01611c7b565b945050608088013567ffffffffffffffff8111156122ef576122ee611b43565b5b6122fb8a828b01611c7b565b93505060a088013567ffffffffffffffff81111561231c5761231b611b43565b5b6123288a828b01611c7b565b92505060c088013567ffffffffffffffff81111561234957612348611b43565b5b6123558a828b01611c7b565b91505092959891949750929550565b7f4e487b7100000000000000000000000000000000000000000000000000000000600052602260045260246000fd5b600060028204905060018216806123ab57607f821691505b602082108114156123bf576123be612364565b5b50919050565b7f4e487b7100000000000000000000000000000000000000000000000000000000600052601160045260246000fd5b60006123ff826118c0565b915061240a836118c0565b92508282101561241d5761241c6123c5565b5b828203905092915050565b7f4e487b7100000000000000000000000000000000000000000000000000000000600052603260045260246000fd5b6000612462826118c0565b91507fffffffffffffffffffffffffffffffffffffffffffffffffffffffffffffffff821415612495576124946123c5565b5b600182019050919050565b60006080820190506124b56000830187611e50565b81810360208301526124c78186611e70565b905081810360408301526124db8185611e70565b905081810360608301526124ef8184611e70565b905095945050505050565b600060408201905061250f6000830185611e50565b81810360208301526125218184611e70565b9050939250505056fea2646970667358221220dbaba8e2793d01a3d69c1880970efcec8ff7e0b866c76429fdebaee6ee6d190f64736f6c63430008090033",
  "linkReferences": {},
  "deployedLinkReferences": {}
}